:020000040000FA
:06000000B1EF12F0120046
:020006001200E6
:060008002BEF0EF01200C8
:0600180074EF0EF012006F
:02001E000100DF
:0C0020007E250000E90000000B0000003D
:04002C00D9CFE6FF43
:10003000E1CFD9FFE652DF6A0A0EDF5C10E2FD0E67
:10004000DBCFE9FFFE0EDBCFEAFFEE52DF50E92403
:10005000E96E000EEA20EA6EEF6ADF2AEDD7FD0EA8
:10006000DBCFE9FFFE0EDBCFEAFFEF6AE552E55298
:10007000E7CFD9FF1200D9CFE6FFE1CFD9FFFB0EC2
:10008000DB50090805E2090EF36EFB0EF3CFDBFF30
:10009000FD0EDBCFE9FFFE0EDBCFEAFFEE52FB0EDB
:1000A000DB50E924E96E000EEA20EA6EFC0EDBCF9D
:1000B000EFFFE552E7CFD9FF1200D9CFE6FFE1CF3E
:1000C000D9FFFC0EDB50090805E2090EF36EFC0EA9
:1000D000F3CFDBFFFD0EDBCFE9FFFE0EDBCFEAFF48
:1000E000EE52FC0EDB50E924E96E000EEA20EA6EC7
:1000F000EF50E552E7CFD9FF1200D9CFE6FFE1CFAD
:10010000D9FFFC0EDB500A0805E20A0EF36EFC0E66
:10011000F3CFDBFFFD0EDBCFE9FFFE0EDBCFEAFF07
:10012000FC0EDBCFEFFFE552E7CFD9FF1200D9CFAE
:10013000E6FFE1CFD9FFFD0EDBCFE9FFFE0EDBCFFF
:10014000EAFFEF50E552E7CFD9FF1200D9CFE6FF23
:10015000E1CFD9FFFD0EDBCFE9FFFE0EDBCFEAFFDB
:10016000EF90FD0EDBCFE9FFFE0EDBCFEAFFEF9253
:10017000FD0EDBCFE9FFFE0EDBCFEAFF020EE92624
:10018000000EEA22EF6AFD0EDBCFE9FFFE0EDBCFA9
:10019000EAFF020EE926000EEA22EFCF10F0200E51
:1001A000105C2BE2FD0EDBCFE9FFFE0EDBCFEAFF9A
:1001B000040EE926000EEA22E9CF10F0EACF11F092
:1001C000FD0EDBCFE9FFFE0EDBCFEAFF020EE926D4
:1001D000000EEA22EF501024E96E000E1120EA6EA4
:1001E000EF6AFD0EDBCFE9FFFE0EDBCFEAFF020E6A
:1001F000E926000EEA22EF2AC6D7FD0EDBCFE9FF83
:10020000FE0EDBCFEAFF020EE926000EEA22EF6ABD
:10021000FD0EDBCFE9FFFE0EDBCFEAFF030EE92682
:10022000000EEA22EF6AFD0EDBCFE9FFFE0EDBCF08
:10023000EAFFEE52EF6AE552E7CFD9FF1200D9CFBD
:10024000E6FFE1CFD9FFFD0EDBCFE9FFFE0EDBCFEE
:10025000EAFFEE52EFCF10F0200E105C43E2FD0EED
:10026000DBCFE9FFFE0EDBCFEAFF040EE926000E2E
:10027000EA22E9CF10F0EACF11F0FD0EDBCFE9FF63
:10028000FE0EDBCFEAFF020EE926000EEA22EF5057
:100290001024E96E000E1120EA6EFC0EDBCFEFFF9A
:1002A000FD0EDBCFE9FFFE0EDBCFEAFF020EE926F3
:1002B000000EEA22EF2A1F0E106EFD0EDBCFE9FFC3
:1002C000FE0EDBCFEAFF020EE926000EEA221050F6
:1002D000EF16FD0EDBCFE9FFFE0EDBCFEAFFEE529D
:1002E000EF2A07D0FD0EDBCFE9FFFE0EDBCFEAFFE2
:1002F000EF80E552E7CFD9FF1200D9CFE6FFE1CF7B
:10030000D9FFE652FD0EDBCFE9FFFE0EDBCFEAFFA1
:10031000EE52EF5042E0FD0EDBCFE9FFFE0EDBCFE9
:10032000EAFF040EE926000EEA22E9CF10F0EACF38
:1003300011F0FD0EDBCFE9FFFE0EDBCFEAFF030E6F
:10034000E926000EEA22EF501024E96E000E11207B
:10035000EA6EEFCFDFFFFD0EDBCFE9FFFE0EDBCF56
:10036000EAFF030EE926000EEA22EF2A1F0E106EA6
:10037000FD0EDBCFE9FFFE0EDBCFEAFF030EE92621
:10038000000EEA221050EF16FD0EDBCFE9FFFE0E45
:10039000DBCFEAFFEE52EF0608D0DF6AFD0EDBCFBF
:1003A000E9FFFE0EDBCFEAFFEF82DF50E552E552B8
:1003B000E7CFD9FF1200D9CFE6FFE1CFD9FFFD0E7D
:1003C000DBCFE9FFFE0EDBCFEAFFEE52EF50E55246
:1003D000E7CFD9FF1200D9CFE6FFE1CFD9FFFD0E5D
:1003E000DBCFE9FFFE0EDBCFEAFFEF50390802E278
:1003F000000E01D0010E116EFD0EDBCFE9FFFE0EE7
:10040000DBCFEAFFEFCF10F0300E105C02E2000EFF
:1004100001D0010E11144DE1FD0EDBCFE9FFFE0E00
:10042000DBCFEAFFEF50460802E2000E01D0010EDA
:10043000116EFD0EDBCFE9FFFE0EDBCFEAFFEFCF43
:1004400010F0410E105C02E2000E01D0010E1114FA
:1004500030E1FD0EDBCFE9FFFE0EDBCFEAFFEF5010
:10046000660802E2000E01D0010E116EFD0EDBCF18
:10047000E9FFFE0EDBCFEAFFEFCF10F0610E105C5C
:1004800002E2000E01D0010E111415E0FD0EDBCFCB
:10049000E9FFFE0EDBCFEAFFEF509F0F410FE66E44
:1004A000FD0EDBCFE9FFFE0EDBCFEAFFE552E750A2
:1004B000EF6E010E01D0000EE552E7CFD9FF12001A
:1004C000D9CFE6FFE1CFD9FFFE0EDB50390802E2BB
:1004D000000E01D0010E106E300EF36EFE0EDBCF5B
:1004E000F4FFF350F45C02E2000E01D0010E101490
:1004F00004E0FE0EDB50D00F34D0FE0EDB50460879
:1005000002E2000E01D0010E106E410EF36EFE0EDF
:10051000DBCFF4FFF350F45C02E2000E01D0010ED9
:10052000101404E0FE0EDB50BF0F18D0FE0EDB509F
:10053000660802E2000E01D0010E106E610EF36E2D
:10054000FE0EDBCFF4FFF350F45C02E2000E01D0AC
:10055000010E101405E0FE0EDB509F0F0A0F01D0B4
:10056000000EE552E7CFD9FF1200D9CFE6FFE1CF69
:10057000D9FF0A0EF36EFE0EDBCFF4FFF350F45CEE
:1005800004E2FE0EDB50300F04D0FE0EDB50F60FFF
:10059000410FE552E7CFD9FF1200D9CFE6FFE1CFF7
:1005A000D9FF949C948E400EB06E7E96AD94AD981B
:1005B000AC8E9D889D8A9F989F9AAD9CAC9CAD9A6D
:1005C000AC88FD0EDBCFE9FFFE0EDBCFEAFF280E85
:1005D000E926000EEA22E9CF10F0EACF11F0E9CFC8
:1005E000E6FFEACFE6FFB2DDE552E552FD0EDBCFD6
:1005F000E9FFFE0EDBCFEAFF040EE926000EEA2239
:10060000E9CF10F0EACF11F0E9CFE6FFEACFE6FF3D
:100610009DDDE552E552FD0EDBCFE9FFFE0EDBCF9F
:10062000EAFF020EE926000EEA22EF6AFD0EDBCF9A
:10063000E9FFFE0EDBCFEAFF030EE926000EEA22F9
:10064000EF6AFD0EDBCFE9FFFE0EDBCFEAFFEF9492
:10065000FD0EDBCFE9FFFE0EDBCFEAFFEF96FD0ECE
:10066000DBCFE9FFFE0EDBCFEAFFEF90FD0EDBCF25
:10067000E9FFFE0EDBCFEAFFEF88FD0EDBCFE9FFDF
:10068000FE0EDBCFEAFFEF9AFD0EDBCFE9FFFE0E99
:10069000DBCFEAFF4C0EE926000EEA22E9CF10F08C
:1006A000EACF11F0E9CFE6FFEACFE6FFBFDCE55283
:1006B000E552FD0EDBCFE9FFFE0EDBCFEAFFEE5287
:1006C000EF6AE552E7CFD9FF1200D9CFE6FFE1CFBD
:1006D000D9FFE652FD0EDBCFE6FFFE0EDBCFE6FFD5
:1006E000D8EC09F0E552E552FD0EDBCFE9FFFE0E36
:1006F000DBCFEAFF280EE926000EEA22E9CF10F050
:10070000EACF11F0E9CFE6FFEACFE6FF54DEE5528B
:10071000E552000902E1E3EF07F0FD0EDBCFE9FF50
:10072000FE0EDBCFEAFF280EE926000EEA22E9CF13
:1007300010F0EACF11F0E9CFE6FFEACFE6FFDDDD0A
:10074000E552E552DF6EFD0EDBCFE9FFFE0EDBCF9B
:10075000EAFFEE52EF50080A01E195D30F0A01E1DA
:1007600033D3010A01E13FD2030A01E1D3D1010AE7
:1007700001E12CD1070A01E1C0D0010A50E0030ACF
:100780000BE0010A02E0DBEF07F02A0EDF5C02E07B
:10079000E3EF07F0C7EF07F02A0EDF5C01E1F7D3C4
:1007A000D9CFE6FFDACFE6FF16DEE552E5520009C3
:1007B00002E1DBEF07F0FD0EDBCFE9FFFE0EDBCF42
:1007C000EAFF650EE926000EEA22DF50EF26DFCFB2
:1007D000E6FF76DEE552E66EFD0EDBCFE9FFFE0EAC
:1007E000DBCFEAFF660EE926000EEA22E552E7506B
:1007F000EF6EFD0EDBCFE9FFFE0EDBCFEAFF660EEC
:10080000E926000EEA22EF38F00BEF6EFD0EDBCF8B
:10081000E9FFFE0EDBCFEAFFEE52020ED3D22A0E24
:10082000DF5C01E1B4D3D9CFE6FFDACFE6FFD3DD59
:10083000E552E552000901E1BED3FD0EDBCFE9FF31
:10084000FE0EDBCFEAFF650EE926000EEA22DF503E
:10085000EF26DFCFE6FF34DEE552106EFD0EDBCF74
:10086000E9FFFE0EDBCFEAFF660EE926000EEA2264
:10087000EF501024E66EFD0EDBCFE9FFFE0EDBCF5E
:10088000EAFF660EE926000EEA22E552E750EF6E17
:10089000FD0EDBCFE9FFFE0EDBCFEAFF660EE92699
:1008A000000EEA22EF50E66EFD0EDBCFE9FFFE0EF2
:1008B000DBCFEAFF630EE926000EEA22E552E7509D
:1008C000EF6EFD0EDBCFE9FFFE0EDBCFEAFFEE524F
:1008D000030EEF6EFD0EDBCFE9FFFE0EDBCFEAFF6E
:1008E000620EE926000EEA22EF6AFD0EDBCFE9FF79
:1008F000FE0EDBCFEAFF640E5AD32A0EDF5C01E165
:1009000046D3D9CFE6FFDACFE6FF65DDE552E55203
:10091000000901E150D3FD0EDBCFE9FFFE0EDBCF76
:10092000EAFF650EE926000EEA22DF50EF26DFCF50
:10093000E6FFC6DDE552E66EFD0EDBCFE9FFFE0EFB
:10094000DBCFEAFF660EE926000EEA22E552E75009
:10095000EF6EFD0EDBCFE9FFFE0EDBCFEAFF660E8A
:10096000E926000EEA22EF38F00BEF6EFD0EDBCF2A
:10097000E9FFFE0EDBCFEAFFEE52040EEF6EFD0E36
:10098000DBCFE9FFFE0EDBCFEAFF620EE926000EA9
:10099000EA22EF2AFD0EDBCFE9FFFE0EDBCFEAFFF6
:1009A000620EE926000EEA22EFCF10F0FD0EDBCF3B
:1009B000E9FFFE0EDBCFEAFF630EE926000EEA2216
:1009C000EF50D880105401E3FED2F5D22A0EDF5C3E
:1009D00001E1DDD2D9CFE6FFDACFE6FFFCDCE5525C
:1009E000E552000901E1E7D2FD0EDBCFE9FFFE0E83
:1009F000DBCFEAFF650EE926000EEA22DF50EF2684
:100A0000DFCFE6FF5DDDE552106EFD0EDBCFE9FFC7
:100A1000FE0EDBCFEAFF660EE926000EEA22EF505B
:100A20001024E66EFD0EDBCFE9FFFE0EDBCFEAFF02
:100A3000660EE926000EEA22E552E750EF6EFD0E43
:100A4000DBCFE9FFFE0EDBCFEAFF640EE926000EE6
:100A5000EA22EF50E66EFD0EDBCFE9FFFE0EDBCFA4
:100A6000EAFF660EE926000EEA22EF50E66EFD0E62
:100A7000DBCFE9FFFE0EDBCFEAFF4C0EE926000ECE
:100A8000EA22E9CF10F0EACF11F0E9CFE6FFEACF92
:100A9000E6FF3BEC00F0E552E552E552E552FD0E73
:100AA000DBCFE9FFFE0EDBCFEAFFEE52050EEF6E65
:100AB000FD0EDBCFE9FFFE0EDBCFEAFF620EE9267B
:100AC000000EEA22EF2AFD0EDBCFE9FFFE0EDBCFA0
:100AD000EAFF640EE926000EEA22EF2AFD0EDBCFC4
:100AE000E9FFFE0EDBCFEAFF620EE926000EEA22E6
:100AF000EFCF10F0FD0EDBCFE9FFFE0EDBCFEAFFFC
:100B0000630EE926000EEA22EF50D880105401E36C
:100B10005AD251D22A0EDF5C01E139D2D9CFE6FF99
:100B2000DACFE6FF58DCE552E552000901E143D295
:100B3000FD0EDBCFE9FFFE0EDBCFEAFF650EE926F7
:100B4000000EEA22DF50EF26DFCFE6FFB9DCE552E8
:100B5000E66EFD0EDBCFE9FFFE0EDBCFEAFF660E91
:100B6000E926000EEA22E552E750EF6EFD0EDBCFDC
:100B7000E9FFFE0EDBCFEAFF660EE926000EEA2251
:100B8000EF38F00BEF6EFD0EDBCFE9FFFE0EDBCF93
:100B9000EAFFEE52060EEF6EFD0EDBCFE9FFFE0E12
:100BA000DBCFEAFF620EE926000EEA22EF2AFD0EF5
:100BB000DBCFE9FFFE0EDBCFEAFF620EE926000E77
:100BC000EA22EFCF10F0FD0EDBCFE9FFFE0EDBCF08
:100BD000EAFF630EE926000EEA22EF50D880105497
:100BE00001E3F1D1E8D12A0EDF5C01E1D0D1D9CF08
:100BF000E6FFDACFE6FFEBEC01F0E552E552000943
:100C000001E1D9D1FD0EDBCFE9FFFE0EDBCFEAFF1C
:100C1000650EE926000EEA22DF50EF26DFCFE6FF61
:100C20004FDCE552106EFD0EDBCFE9FFFE0EDBCF91
:100C3000EAFF660EE926000EEA22EF501024E66E67
:100C4000FD0EDBCFE9FFFE0EDBCFEAFF660EE926E5
:100C5000000EEA22E552E750EF6EFD0EDBCFE9FF12
:100C6000FE0EDBCFEAFF640EE926000EEA22EF500B
:100C7000E66EFD0EDBCFE9FFFE0EDBCFEAFF660E70
:100C8000E926000EEA22EF50E66EFD0EDBCFE9FF0B
:100C9000FE0EDBCFEAFF4C0EE926000EEA22E9CF7A
:100CA00010F0EACF11F0E9CFE6FFEACFE6FF3BEC28
:100CB00000F0E552E552E552E552FD0EDBCFE9FFCB
:100CC000FE0EDBCFEAFFEE52050EEF6EFD0EDBCF20
:100CD000E9FFFE0EDBCFEAFF620EE926000EEA22F4
:100CE000EF2AFD0EDBCFE9FFFE0EDBCFEAFF640E3D
:100CF000E926000EEA22EF2AFD0EDBCFE9FFFE0E09
:100D0000DBCFEAFF620EE926000EEA22EFCF10F0F9
:100D1000FD0EDBCFE9FFFE0EDBCFEAFF630EE92617
:100D2000000EEA22EF50D880105408E2FD0EDBCF0F
:100D3000E9FFFE0EDBCFEAFFEE52EF6AFD0EDBCFDE
:100D4000E9FFFE0EDBCFEAFF620EE926000EEA2283
:100D5000EFCF10F0FD0EDBCFE9FFFE0EDBCFEAFF99
:100D6000630EE926000EEA22EF50105C09E2FD0E48
:100D7000DBCFE9FFFE0EDBCFEAFFEE52030E22D0FF
:100D8000FD0EDBCFE9FFFE0EDBCFEAFFEE52070ED2
:100D9000EF6EFD0EDBCFE9FFFE0EDBCFEAFF630E49
:100DA000E926000EEA22EF50020FE66EFD0EDBCFC1
:100DB000E9FFFE0EDBCFEAFF630EE926000EEA2212
:100DC000E552E750EF6EFFD02A0EDF5C01E1DFD085
:100DD000D9CFE6FFDACFE6FFEBEC01F0E552E552C2
:100DE000000901E1E8D0DFCFE6FF60EC02F0E55258
:100DF000E66EFD0EDBCFE9FFFE0EDBCFEAFF660EEF
:100E0000E926000EEA22E552E750EF6EFD0EDBCF39
:100E1000E9FFFE0EDBCFEAFF660EE926000EEA22AE
:100E2000EF38F00BEF6EFD0EDBCFE9FFFE0EDBCFF0
:100E3000EAFFEE52080EEF6EFD0EDBCFE9FFFE0E6D
:100E4000DBCFEAFF620EE926000EEA22EF2AFD0E52
:100E5000DBCFE9FFFE0EDBCFEAFF620EE926000ED4
:100E6000EA22EFCF10F0FD0EDBCFE9FFFE0EDBCF65
:100E7000EAFF630EE926000EEA22EF50D8801054F4
:100E800001E3A1D098D02A0EDF5C01E180D0D9CF58
:100E9000E6FFDACFE6FFEBEC01F0E552E5520009A0
:100EA00001E189D0DFCFE6FF60EC02F0E552106E81
:100EB000FD0EDBCFE9FFFE0EDBCFEAFF660EE92673
:100EC000000EEA22EF501024E66EFD0EDBCFE9FFA4
:100ED000FE0EDBCFEAFF660EE926000EEA22E5529F
:100EE000E750EF6EFD0EDBCFE9FFFE0EDBCFEAFF32
:100EF000660EE926000EEA22EFCF10F0FD0EDBCFE2
:100F0000E9FFFE0EDBCFEAFF650EE926000EEA22BE
:100F1000EF50105C50E1FD0EDBCFE9FFFE0EDBCFA2
:100F2000EAFF640EE926000EEA22EF50E66EFD0E9F
:100F3000DBCFE9FFFE0EDBCFEAFF4C0EE926000E09
:100F4000EA22E9CF10F0EACF11F0E9CFE6FFEACFCD
:100F5000E6FF7DEC00F0E552E552E552FD0EDBCFF9
:100F6000E9FFFE0EDBCFEAFFEF50040B08E0FD0EB9
:100F7000DBCFE9FFFE0EDBCFEAFFEF8624D0FD0ECC
:100F8000DBCFE9FFFE0EDBCFEAFFEF841CD0FD0EC6
:100F9000DBCFE9FFFE0EDBCFEAFFEE52010EEF6E74
:100FA000FD0EDBCFE9FFFE0EDBCFEAFF650EE92683
:100FB000000EEA2207D0FD0EDBCFE9FFFE0EDBCFED
:100FC000EAFFEE52EF6AE552E552E7CFD9FF120091
:100FD000D9CFE6FFE1CFD9FFFD0EDBCFE9FFFE0E53
:100FE000DBCFEAFFEF50040B01E0010EE552E7CF43
:100FF000D9FF1200D9CFE6FFE1CFD9FFFD0EDBCF3D
:10100000E9FFFE0EDBCFEAFFEF94E552E7CFD9FF11
:101010001200D9CFE6FFE1CFD9FF020EE126FD0E87
:10102000DBCFE9FFFE0EDBCFEAFFEF50040B65E0FC
:10103000FD0EDBCFE9FFFE0EDBCFEAFF4C0EE9260B
:10104000000EEA22EFCFDFFFFD0EDBCFE9FFFE0E41
:10105000DBCFEAFF4C0EE926000EEA22EF50E66EE7
:10106000FB0EDBCFE9FFFC0EDBCFEAFFE552E750DA
:10107000EF6E010EDB6AFD0EDBCFE9FFFE0EDBCF6C
:10108000EAFF4C0EE926000EEA22EF50F36E010E45
:10109000DBCFF4FFF350F45C28E2FD0EDBCFE9FF79
:1010A000FE0EDBCFEAFF4C0EE926000EEA22EE52DE
:1010B000010EDB50E924E96E000EEA20EA6EEF50E3
:1010C000E66EFB0EDBCFE9FFFC0EDBCFEAFFEE5254
:1010D000010EDB50E924E96E000EEA20EA6EE552CB
:1010E000E750EF6E010EDB2AC6D7FD0EDBCFE9FF1E
:1010F000FE0EDBCFEAFFEF940CD0E66AFB0EDBCFEF
:10110000E6FFFC0EDBCFE6FF7DEC00F0E552E5529A
:10111000E552020EE15C02E2E16AE552E16EE5525F
:10112000E7CFD9FF1200D9CFE6FFE1CFD9FFFD0EFF
:10113000DBCFE9FFFE0EDBCFEAFFEF50040B28E028
:10114000FD0EDBCFE9FFFE0EDBCFEAFF4C0EE926FA
:10115000000EEA22EF50F36EFC0EDBCFF4FFF350EB
:10116000F45C14E2FD0EDBCFE9FFFE0EDBCFEAFFFD
:101170004C0EE926000EEA22EE52FC0EDB50E9246A
:10118000E96E000EEA20EA6EEF5003D0000E01D0A7
:10119000000EE552E7CFD9FF1200D9CFE6FFE1CF2D
:1011A000D9FFFD0EDBCFE9FFFE0EDBCFEAFFEF50EC
:1011B000040B0CE0FD0EDBCFE9FFFE0EDBCFEAFFF8
:1011C0004C0EE926000EEA22EF5001D0000EE55247
:1011D000E7CFD9FF1200D9CFE6FFE1CFD9FFFD0E4F
:1011E000DBCFE9FFFE0EDBCFEAFF570EE926000E4C
:1011F000EA22EF5002E0000E01D0010EE552E7CFE7
:10120000D9FF1200D9CFE6FFE1CFD9FFE652FD0E9C
:10121000DBCFE9FFFE0EDBCFEAFF570EE926000E1B
:10122000EA22EF5002E0000E5ED0DF6AFB0EDBCF59
:10123000E9FFFC0EDBCFEAFFEF50DF5C37E2FB0E8D
:10124000DBCFE9FFFC0EDBCFEAFFEE52E9CF14F073
:10125000EACF15F0DFCF16F0176A16BE17681450E4
:101260001624E96E15501720EA6EEF50E66EFD0E5B
:10127000DBCFE9FFFE0EDBCFEAFF570EE926000EBB
:10128000EA22EE52E9CF10F0EACF11F0DFCF12F0F0
:10129000136A12BE136810501224E96E1150132005
:1012A000EA6EE552E750EF6EDF2AC0D7FB0EDBCFC8
:1012B000E9FFFC0EDBCFEAFFEF50E66EFD0EDBCF61
:1012C000E9FFFE0EDBCFEAFF570EE926000EEA2209
:1012D000E552E750EF6EFB0EDBCFE9FFFC0EDBCFF4
:1012E000EAFFEF6A010EE552E552E7CFD9FF12009F
:1012F000D9CFE6FFE1CFD9FF0A0EF36EFB0EDBCFAD
:10130000F4FFF350F45C0CE2FD0EDBCFE9FFFE0EC0
:10131000DBCFEAFF570EE926000EEA22EF5002E08B
:10132000000E16D0FD0EDBCFE9FFFE0EDBCFEAFF8D
:10133000570EE926000EEA22EE52FB0EDB50E9249E
:10134000E96E000EEA20EA6EFC0EDBCFEFFF010E25
:10135000E552E7CFD9FF1200D9CFE6FFE1CFD9FFA1
:101360000A0EF36EFC0EDBCFF4FFF350F45C0CE2DC
:10137000FD0EDBCFE9FFFE0EDBCFEAFF570EE926BD
:10138000000EEA22EF5002E0000E0ED0FD0EDBCF81
:10139000E9FFFE0EDBCFEAFF570EE926000EEA2238
:1013A000FC0EDBCFEFFF010EE552E7CFD9FF1200B5
:1013B000D9CFE6FFE1CFD9FF060EE126FD0EDBCF48
:1013C000E9FFFE0EDBCFEAFF570EE926000EEA2208
:1013D000EF5001E1A4D1ADBAA2D12A0EE66EFD0E06
:1013E000DBCFE9FFFE0EDBCFEAFF040EE926000E9D
:1013F000EA22E9CF10F0EACF11F0E9CFE6FFEACF19
:10140000E6FF1FEC01F0E552E552E552DF6AFD0E02
:10141000DBCFE9FFFE0EDBCFEAFF570EE926000E19
:10142000EA22EF50020D010EF3CFDBFFDB50E76E37
:10143000030EE7CFDBFFDB380F0BF36E030EF3CFAA
:10144000DBFFDB98DB9ADB9CDB9EDBCFE6FFB5ECBA
:1014500002F0E552E76E030EE7CFDBFFDB50DF263D
:10146000010EDB500F0BE76E040EE7CFDBFFDBCF87
:10147000E6FFB5EC02F0E552E76E040EE7CFDBFFC6
:10148000DB50DF26030EDBCFE6FFFD0EDBCFE9FFEF
:10149000FE0EDBCFEAFF040EE926000EEA22E9CFBA
:1014A00010F0EACF11F0E9CFE6FFEACFE6FF1FEC3C
:1014B00001F0E552E552E552040EDBCFE6FFFD0EEA
:1014C000DBCFE9FFFE0EDBCFEAFF040EE926000EBC
:1014D000EA22E9CF10F0EACF11F0E9CFE6FFEACF38
:1014E000E6FF1FEC01F0E552E552E552010EDBCFBD
:1014F000F3FFF390F342F3CFDBFF050EDB6A0A0E36
:10150000F36E050EDBCFF4FFF350F45C02E3000E44
:1015100001D0010E106E010EDB50F36E050EDBCF15
:10152000F4FFF350F45C02E3000E01D0010E10143E
:1015300001E17DD0FD0EDBCFE9FFFE0EDBCFEAFF40
:10154000570EE926000EEA22EE52E9CF10F0EACF5C
:1015500011F0050EDB500F01E924E96E000EEA20C0
:10156000EA6E020EEFCFDBFFDB50E76E030EE7CF34
:10157000DBFFDB380F0BF36E030EF3CFDBFFDB98E3
:10158000DB9ADB9CDB9EDBCFE6FFB5EC02F0E5529D
:10159000E76E030EE7CFDBFFDB50DF26020EDB50EA
:1015A0000F0BE76E040EE7CFDBFFDBCFE6FFB5ECFA
:1015B00002F0E552E76E040EE7CFDBFFDB50DF26DB
:1015C000030EDBCFE6FFFD0EDBCFE9FFFE0EDBCF28
:1015D000EAFF040EE926000EEA22E9CF10F0EACF76
:1015E00011F0E9CFE6FFEACFE6FF1FEC01F0E5528C
:1015F000E552E552040EDBCFE6FFFD0EDBCFE9FF3F
:10160000FE0EDBCFEAFF040EE926000EEA22E9CF48
:1016100010F0EACF11F0E9CFE6FFEACFE6FF1FECCA
:1016200001F0E552E552E552050EDB2A68D7030EBC
:10163000DFCFDBFFDB380F0BF36E030EF3CFDBFFE7
:10164000DB98DB9ADB9CDB9EDBCFE6FFB5EC02F0A0
:10165000E552E76E030EE7CFDBFF0F0EDF14E76EF8
:10166000040EE7CFDBFFDBCFE6FFB5EC02F0E5527F
:10167000E76E040EE7CFDBFF030EDBCFE6FFFD0EC8
:10168000DBCFE9FFFE0EDBCFEAFF040EE926000EFA
:10169000EA22E9CF10F0EACF11F0E9CFE6FFEACF76
:1016A000E6FF1FEC01F0E552E552E552040EDBCFF8
:1016B000E6FFFD0EDBCFE9FFFE0EDBCFEAFF040EF7
:1016C000E926000EEA22E9CF10F0EACF11F0E9CFC7
:1016D000E6FFEACFE6FF1FEC01F0E552E552E552E6
:1016E000FD0EDBCFE9FFFE0EDBCFEAFF570EE9264A
:1016F000000EEA22EF6AFD0EDBCFE9FFFE0EDBCF24
:10170000EAFFEF50100B01E0AD8AFD0EDBCFE9FFE1
:10171000FE0EDBCFEAFFEF50200B01E0A88A060E99
:10172000E15C02E2E16AE552E16EE552E7CFD9FF02
:101730001200D9CFE6FFE1CFD9FF9EA862D0FD0EFF
:10174000DBCFE9FFFE0EDBCFEAFF020EE926000E3B
:10175000EA22EF501AE0AE6AFD0EDBCFE9FFFE0E83
:10176000DBCFEAFF020EE926000EEA22EF06FD0EAD
:10177000DBCFE9FFFE0EDBCFEAFF020EE926000E0B
:10178000EA22EF503EE1AD9A3CD0FD0EDBCFE9FFFF
:10179000FE0EDBCFEAFF040EE926000EEA22E9CFB7
:1017A00010F0EACF11F0E9CFE6FFEACFE6FFDBEC7D
:1017B00001F0E552E552000918E0FD0EDBCFE9FF2C
:1017C000FE0EDBCFEAFF040EE926000EEA22E9CF87
:1017D00010F0EACF11F0E9CFE6FFEACFE6FF7DECAB
:1017E00001F0E552E552AE6E0CD0FD0EDBCFE9FF05
:1017F000FE0EDBCFEAFF020EE926000EEA22030E00
:10180000EF6E9EAA26D0AF50E66EFD0EDBCFE9FF4D
:10181000FE0EDBCFEAFF280EE926000EEA22E9CF12
:1018200010F0EACF11F0E9CFE6FFEACFE6FF1FECB8
:1018300001F0E552E552E552AC50040B01E0010E17
:10184000106EAC50020B01E0010E101002E0AC98DB
:0A185000AC88E552E7CFD9FF120083
:06185A009B8CAAD99FD966
:10186000ACD9B8D9BFD9C9D9D00EE66E000EE66E94
:1018700032EC11F0E552E552D20EE66E000EE66E45
:1018800032EC11F0E552E552D40EE66E000EE66E33
:1018900032EC11F0E552E552D60EE66E000EE66E21
:1018A000D3EC0EF0E552E552CFD9ABD9ACD9600EEE
:1018B000E66E000EE66ECDEC02F0E552E552000158
:1018C000E95101E161D10001E96B0001D8078850BD
:1018D000400B01E0010EE66ED40EE66E000EE66EE1
:1018E0004AEC11F0E552E552E552E8B08C8EE8A0E2
:1018F0008C9ED5C0EAF00001EA5111E00001F251DE
:101900000EE10001010EF26F0001F35105E100014B
:10191000010EF36F96D903D00001F36B92D9000149
:10192000EA5105E10001F25102E00001F26B000111
:10193000D85176E10001320ED86F600EE66E000ECF
:10194000E66EE8EC07F0E552E552000969E0600E4A
:10195000E66E000EE66EEBEC08F0E552E55200098B
:101960005FE0600EE66E000EE66ECDEC08F0E5522C
:10197000E5520001C76F0001C86B0001C7510001AB
:10198000C85D37E2C8C0E6FF600EE66E000EE66E88
:1019900093EC08F0E552E552E552E66E0001C851BD
:1019A000E96EEA6AD890E936EA36D90EE926000EE1
:1019B000EA22E552E750EE6EED6AC8C0E6FF00018C
:1019C000C851E96EEA6AD890E936EA36D90EE926B6
:1019D000000EEA22EF50E66E600EE66E000EE66E36
:1019E00078EC09F0E552E552E552E5520001C82BCA
:1019F000C4D7DFC0EBF0DDC0EDF0C7C0E6FF600E7E
:101A0000E66E000EE66EACEC09F0E552E552E552EA
:101A1000600EE66E000EE66EFAEC07F0E552E55257
:101A20000001F35172E1838E8850010BE66ED00EF7
:101A3000E66E000EE66E4AEC11F0E552E552E55214
:101A4000E8B08C8CE8A08C9C8850020B01E0010E61
:101A5000E66ED20EE66E000EE66E4AEC11F0E5522E
:101A6000E552E552E8B08C8AE8A08C9AD1C0CCF05F
:101A7000D3C0CDF0CDC0E6FFCCC0E6FFD60EE66EFB
:101A8000000EE66EEAEC0EF0E552E552E552E55244
:101A9000D7C087FFD7C0F0F00001F16BF0BFF1694C
:101AA0000001E30EF103F3CFF1F0E30EF003F3CF07
:101AB000F0F0F450F127400E0D6E0E6AF0C008F001
:101AC000F1C009F065EC12F008C0F0F009C0F1F0C7
:101AD00000010A0EF103F3CFF1F00A0EF003F3CF89
:101AE000F0F0F450F127880E0001F027130E0001EA
:101AF000F123F0C0EEF0F1C0EFF00001100ED8803D
:101B0000EE57270EEF578FD83FD0839EEBC087FF4D
:101B1000EBC0ECF0ECC0F0F00001F16BF0BFF1694C
:101B20000001E30EF103F3CFF1F0E30EF003F3CF86
:101B3000F0F0F450F127400E0D6E0E6AF0C008F080
:101B4000F1C009F065EC12F008C0F0F009C0F1F046
:101B500000010A0EF103F3CFF1F00A0EF003F3CF08
:101B6000F0F0F450F127880E0001F027130E000169
:101B7000F123F0C0EEF0F1C0EFF00001100ED880BC
:101B8000EE57270EEF5741D8600EE66E000EE66E58
:101B900065EC03F0E552E55292D600001200996A16
:101BA000876A956A836A98989690969284908492B0
:101BB00012009A809A829A8C1200CA94CA92CA80A1
:101BC000CA8CCA9ACA98CA86F90ECB6E9E929D821A
:101BD0009F9212007990799A799A798E798C798688
:101BE00079921200A384A58470867094709270908C
:101BF000100E716E270E726E1200D08EF28EF28C65
:101C00001200CA84120079801200810E0001EB5D7F
:101C100002E1848007D07F0EEB5D02E1848202D076
:101C2000849084921200810E0001D75D02E18480CD
:101C300007D07F0ED75D02E1848202D08490849227
:101C40001200849084921200010E0001E56FE66B91
:101C5000E76FE86B1200DACFE4FFE2CFDAFFE9CFFB
:101C6000E4FFEACFE4FFE652D9CFE6FFE1CFD9FFA8
:101C7000020EE12671CFDEFF72CFDDFFA49486A8AD
:101C80000CD07080D9CFE9FFDACFEAFF0001EE5126
:101C9000EE26EF51ED2283900BD07090D9CFE9FF63
:101CA000DACFEAFF0001F051EE26F151ED228380F8
:101CB000DECF18F0DDCF19F019C018F0196A1850EE
:101CC000726EDF50716E020EE15C02E2E16AE55273
:101CD000E16EE552E7CFD9FFE552E5CFEAFFE5CF68
:101CE000E9FFE5CFDAFF1100D8CFE4FFE0CFE4FF52
:101CF000E46EDACFE4FFE2CFDAFFE9CFE4FFEACF28
:101D0000E4FFF6CFE4FFF7CFE4FFF5CFE4FFF3CF36
:101D1000E4FFF4CFE4FFFACFE4FF00EE00F0100E92
:101D2000E80403E3EECFE4FFFBD700EE10F0080E6B
:101D3000E80403E3EECFE4FFFBD7E6520001010E17
:101D4000E96F9E92600EE66E000EE66E99EC0BF067
:101D5000E552E552E55200EE17F0080EE80403E301
:101D6000E5CFEDFFFBD700EE0FF0100EE80403E324
:101D7000E5CFEDFFFBD7E5CFFAFFE5CFF4FFE5CFE9
:101D8000F3FFE5CFF5FFE5CFF7FFE5CFF6FFE5CFB2
:101D9000EAFFE5CFE9FFE5CFDAFFE550E5CFE0FF69
:061DA000E5CFD8FF1000A2
:0A1DA600D9CFE6FFE1CFD9FFFD0E13
:101DB000DBCFE9FFFE0EDBCFEAFFEF6AFD0EDBCFE4
:101DC000E9FFFE0EDBCFEAFFEE52EF6AE552E7CF06
:101DD000D9FF1200D9CFE6FFE1CFD9FF040EE126EB
:101DE000FD0EDBCFE9FFFE0EDBCFEAFFEF50040A6A
:101DF00001E1AFD1070A01E138D1010A01E1C1D007
:101E0000030A4BE0010A04E018D2DF6A010EDB6A24
:101E1000FC0EDB50E76E020EE7CFDBFFFB0EDB5064
:101E2000E76E030EE7CFDBFFFC0EDB500BE1FB0E92
:101E3000DB5008E1FD0EDBCFE9FFFE0EDBCFEAFF52
:101E4000010EEF6EFC0EDB040BE1FB0EDB5008E134
:101E5000FD0EDBCFE9FFFE0EDBCFEAFF020EEF6ED9
:101E6000FC0EDB040BE1FB0EDB0408E1FD0EDBCF17
:101E7000E9FFFE0EDBCFEAFF030EEF6EFC0EDB5038
:101E80000BE1FB0EDB0408E1FD0EDBCFE9FFFE0EEC
:101E9000DBCFEAFF040EEF6ED0D1FC0EDB5029E160
:101EA000FB0EDB5026E0FD0EDBCFE9FFFE0EDBCFA5
:101EB000EAFFEECF10F0EFCF11F0810E0001E76ED8
:101EC0001118E8AE02D0113403D0E750D880115475
:101ED00010E2FD0EDBCFE9FFFE0EDBCFEAFF040EC2
:101EE000EF6EFD0EDBCFE9FFFE0EDBCFEAFFEE5219
:101EF000EF06FC0EDB5028E0FB0EDB5025E1FD0E6B
:101F0000DBCFE9FFFE0EDBCFEAFFEECF10F0EFCF25
:101F100011F07F0E0001E76E1118E8AE02D0E73431
:101F200002D0E750115C10E2FD0EDBCFE9FFFE0EA0
:101F3000DBCFEAFF020EEF6EFD0EDBCFE9FFFE0EF8
:101F4000DBCFEAFFEE52EF2AFD0EDBCFE9FFFE0EFC
:101F5000DBCFEAFFEE52EF5081080AE0FD0EDBCF47
:101F6000E9FFFE0EDBCFEAFFEE52EF507F0808E1FB
:101F7000FD0EDBCFE9FFFE0EDBCFEAFFEF6A5DD19E
:101F80005CD1FC0EDB0428E1FB0EDB5025E0FD0EEE
:101F9000DBCFE9FFFE0EDBCFEAFFEECF10F0EFCF95
:101FA00011F07F0E0001E76E1118E8AE02D0E734A1
:101FB00002D0E750115C10E2FD0EDBCFE9FFFE0E10
:101FC000DBCFEAFF030EEF6EFD0EDBCFE9FFFE0E67
:101FD000DBCFEAFFEE52EF2AFC0EDB0429E0FB0E1A
:101FE000DB5026E1FD0EDBCFE9FFFE0EDBCFEAFF83
:101FF000EECF10F0EFCF11F0810E0001E76E111857
:10200000E8AE02D0113403D0E750D880115410E26A
:10201000FD0EDBCFE9FFFE0EDBCFEAFF010EEF6E18
:10202000FD0EDBCFE9FFFE0EDBCFEAFFEE52EF063F
:10203000FD0EDBCFE9FFFE0EDBCFEAFFEE52EF50E5
:1020400081080AE0FD0EDBCFE9FFFE0EDBCFEAFFE1
:10205000EE52EF507F0808E1FD0EDBCFE9FFFE0EE8
:10206000DBCFEAFFEF6AE9D0E8D0FC0EDB0429E120
:10207000FB0EDB0426E0FD0EDBCFE9FFFE0EDBCF1F
:10208000EAFFEECF10F0EFCF11F0810E0001E76E06
:102090001118E8AE02D0113403D0E750D8801154A3
:1020A00010E2FD0EDBCFE9FFFE0EDBCFEAFF020EF2
:1020B000EF6EFD0EDBCFE9FFFE0EDBCFEAFFEE5247
:1020C000EF06FC0EDB0428E0FB0EDB0425E1FD0E31
:1020D000DBCFE9FFFE0EDBCFEAFFEECF10F0EFCF54
:1020E00011F07F0E0001E76E1118E8AE02D0E73460
:1020F00002D0E750115C10E2FD0EDBCFE9FFFE0ECF
:10210000DBCFEAFF040EEF6EFD0EDBCFE9FFFE0E24
:10211000DBCFEAFFEE52EF2AFD0EDBCFE9FFFE0E2A
:10212000DBCFEAFFEE52EF5081080AE0FD0EDBCF75
:10213000E9FFFE0EDBCFEAFFEE52EF507F0808E129
:10214000FD0EDBCFE9FFFE0EDBCFEAFFEF6A75D0B5
:1021500074D0FC0EDB5028E1FB0EDB0425E0FD0E05
:10216000DBCFE9FFFE0EDBCFEAFFEECF10F0EFCFC3
:1021700011F07F0E0001E76E1118E8AE02D0E734CF
:1021800002D0E750115C10E2FD0EDBCFE9FFFE0E3E
:10219000DBCFEAFF010EEF6EFD0EDBCFE9FFFE0E97
:1021A000DBCFEAFFEE52EF2AFC0EDB5029E0FB0EFC
:1021B000DB0426E1FD0EDBCFE9FFFE0EDBCFEAFFFD
:1021C000EECF10F0EFCF11F0810E0001E76E111885
:1021D000E8AE02D0113403D0E750D880115410E299
:1021E000FD0EDBCFE9FFFE0EDBCFEAFF030EEF6E45
:1021F000FD0EDBCFE9FFFE0EDBCFEAFFEE52EF066E
:10220000FD0EDBCFE9FFFE0EDBCFEAFFEE52EF5013
:1022100081080AE0FD0EDBCFE9FFFE0EDBCFEAFF0F
:10222000EE52EF507F0808E1FD0EDBCFE9FFFE0E16
:10223000DBCFEAFFEF6A01D000D0FD0EDBCFE9FF74
:10224000FE0EDBCFEAFFEE52EF50106E040EE15CA3
:1022500003E200D0E16AE552E16E1050E552E7CFAB
:04226000D9FF120090
:0C226400D9CFE6FFE1CFD9FFFD0EDBCFA4
:10227000E9FFFE0EDBCFEAFFEF6AFD0EDBCFE9FFE1
:10228000FE0EDBCFEAFFEE52010EEF6EE552E7CF16
:10229000D9FF1200D9CFE6FFE1CFD9FFFD0EDBCF8A
:1022A000E9FFFE0EDBCFEAFFEF50060A01E194D012
:1022B000030A74E0010A5DE0070A46E0010A2FE024
:1022C000030A18E0010A01E0A4D0FC0EDB5009E08B
:1022D000FD0EDBCFE9FFFE0EDBCFEAFF010EEF6E56
:1022E00008D0FD0EDBCFE9FFFE0EDBCFEAFF020ECA
:1022F000EF6E8FD0FC0EDB5009E0FD0EDBCFE9FF67
:10230000FE0EDBCFEAFF030EEF6E08D0FD0EDBCF33
:10231000E9FFFE0EDBCFEAFF020EEF6E7AD0FC0E75
:10232000DB5009E0FD0EDBCFE9FFFE0EDBCFEAFF5D
:10233000010EEF6E08D0FD0EDBCFE9FFFE0EDBCF06
:10234000EAFF040EEF6E65D0FC0EDB5009E0FD0ED7
:10235000DBCFE9FFFE0EDBCFEAFF050EEF6E08D004
:10236000FD0EDBCFE9FFFE0EDBCFEAFF020EEF6EC4
:1023700050D0FC0EDB5009E0FD0EDBCFE9FFFE0E76
:10238000DBCFEAFF010EEF6E08D0FD0EDBCFE9FFD9
:10239000FE0EDBCFEAFF060EEF6E3BD0FC0EDB50ED
:1023A00009E0FD0EDBCFE9FFFE0EDBCFEAFF050EF5
:1023B000EF6E08D0FD0EDBCFE9FFFE0EDBCFEAFFAC
:1023C000020EEF6EFD0EDBCFE9FFFE0EDBCFEAFF64
:1023D000EE52010EEF6E1DD0FC0EDB5009E0FD0E3B
:1023E000DBCFE9FFFE0EDBCFEAFF010EEF6E08D078
:1023F000FD0EDBCFE9FFFE0EDBCFEAFF060EEF6E30
:10240000FD0EDBCFE9FFFE0EDBCFEAFFEE52EF6AF7
:1024100000D0FD0EDBCFE9FFFE0EDBCFEAFFEE5270
:0C242000EF5000D0E552E7CFD9FF1200CA
:04242C001E0EF66E1C
:10243000000EF76E000EF86E00010900F550F96FFE
:102440000900F550FA6F03E1F96701D03DD00900AA
:10245000F550F46F0900F550F56F0900F550F66F6F
:1024600009000900F550E96E0900F550EA6E09000F
:1024700009000900F550F76F0900F550F86F0900E1
:102480000900F6CFFBF0F7CFFCF0F8CFFDF0F4C079
:10249000F6FFF5C0F7FFF6C0F8FF0001F75302E1C1
:1024A000F85307E00900F550EE6EF707F8E2F80779
:1024B000F9D7FBC0F6FFFCC0F7FFFDC0F8FF000135
:0A24C000F907000EFA5BBFD7120007
:0624CA00006A0EAE6EEF89
:1024D00012F00D6C0E1EE86A0E22001E09AE76EF99
:1024E00012F0086C091EE86A0922001E8BEC12F03B
:1024F00009BE86EF12F000AE000C086C091EE86AF7
:102500000922046C051EE86A0522000C00BE7DEF5E
:0625100012F00188FF0C2F
:0A251600056A046A100EE76ED89003
:1025200008360936043605360D50045C0E50055841
:1025300005E30D50045E0E50055A082AE72EF0D729
:02254000120087
:0E254200400EF36E00EE00F00F0E01D81200F6
:10255000EA6002D0EE6AFCD7F350E9601200EE6A3E
:02256000FCD7A6
:0E2562001EEE00F02EEE00F0F86A019C16EC62
:0E25700012F003EC00F02DEC0CF0FBD7120083
:02257E0001005A
:092580000000008813881300001C
:020000040001F9
:01FFF8008088
:01FFF900F413
:01FFFA000501
:01FFFB00FF06
:01FFFC00F80C
:00000001FF
