:020000040000FA
:060000005DEF14F0120098
:020006001200E6
:0600080008EF0FF01200EA
:02000E000100EF
:0300100000881352
:0600180020EF10F01200C1
:02001E000100DF
:0C0020000E000000F900000005000000C8
:04002C00D9CFE6FF43
:10003000E1CFD9FFE652DF6A0A0EDF5C10E2FD0E67
:10004000DBCFE9FFFE0EDBCFEAFFEE52DF50E92403
:10005000E96E000EEA20EA6EEF6ADF2AEDD7FD0EA8
:10006000DBCFE9FFFE0EDBCFEAFFEF6AE552E55298
:10007000E7CFD9FF1200D9CFE6FFE1CFD9FFFB0EC2
:10008000DB50090805E2090EF36EFB0EF3CFDBFF30
:10009000FD0EDBCFE9FFFE0EDBCFEAFFEE52FB0EDB
:1000A000DB50E924E96E000EEA20EA6EFC0EDBCF9D
:1000B000EFFFE552E7CFD9FF1200D9CFE6FFE1CF3E
:1000C000D9FFFC0EDB50090805E2090EF36EFC0EA9
:1000D000F3CFDBFFFD0EDBCFE9FFFE0EDBCFEAFF48
:1000E000EE52FC0EDB50E924E96E000EEA20EA6EC7
:1000F000EF50E552E7CFD9FF1200D9CFE6FFE1CFAD
:10010000D9FFFC0EDB500A0805E20A0EF36EFC0E66
:10011000F3CFDBFFFD0EDBCFE9FFFE0EDBCFEAFF07
:10012000FC0EDBCFEFFFE552E7CFD9FF1200D9CFAE
:10013000E6FFE1CFD9FFFD0EDBCFE9FFFE0EDBCFFF
:10014000EAFFEF50E552E7CFD9FF1200D9CFE6FF23
:10015000E1CFD9FFFD0EDBCFE9FFFE0EDBCFEAFFDB
:10016000EF90FD0EDBCFE9FFFE0EDBCFEAFFEF9253
:10017000FD0EDBCFE9FFFE0EDBCFEAFF020EE92624
:10018000000EEA22EF6AFD0EDBCFE9FFFE0EDBCFA9
:10019000EAFF020EE926000EEA22EFCF10F0200E51
:1001A000105C2BE2FD0EDBCFE9FFFE0EDBCFEAFF9A
:1001B000040EE926000EEA22E9CF10F0EACF11F092
:1001C000FD0EDBCFE9FFFE0EDBCFEAFF020EE926D4
:1001D000000EEA22EF501024E96E000E1120EA6EA4
:1001E000EF6AFD0EDBCFE9FFFE0EDBCFEAFF020E6A
:1001F000E926000EEA22EF2AC6D7FD0EDBCFE9FF83
:10020000FE0EDBCFEAFF020EE926000EEA22EF6ABD
:10021000FD0EDBCFE9FFFE0EDBCFEAFF030EE92682
:10022000000EEA22EF6AFD0EDBCFE9FFFE0EDBCF08
:10023000EAFFEE52EF6AE552E7CFD9FF1200D9CFBD
:10024000E6FFE1CFD9FFFD0EDBCFE9FFFE0EDBCFEE
:10025000EAFFEE52EFCF10F0200E105C43E2FD0EED
:10026000DBCFE9FFFE0EDBCFEAFF040EE926000E2E
:10027000EA22E9CF10F0EACF11F0FD0EDBCFE9FF63
:10028000FE0EDBCFEAFF020EE926000EEA22EF5057
:100290001024E96E000E1120EA6EFC0EDBCFEFFF9A
:1002A000FD0EDBCFE9FFFE0EDBCFEAFF020EE926F3
:1002B000000EEA22EF2A1F0E106EFD0EDBCFE9FFC3
:1002C000FE0EDBCFEAFF020EE926000EEA221050F6
:1002D000EF16FD0EDBCFE9FFFE0EDBCFEAFFEE529D
:1002E000EF2A07D0FD0EDBCFE9FFFE0EDBCFEAFFE2
:1002F000EF80E552E7CFD9FF1200D9CFE6FFE1CF7B
:10030000D9FFE652FD0EDBCFE9FFFE0EDBCFEAFFA1
:10031000EE52EF5042E0FD0EDBCFE9FFFE0EDBCFE9
:10032000EAFF040EE926000EEA22E9CF10F0EACF38
:1003300011F0FD0EDBCFE9FFFE0EDBCFEAFF030E6F
:10034000E926000EEA22EF501024E96E000E11207B
:10035000EA6EEFCFDFFFFD0EDBCFE9FFFE0EDBCF56
:10036000EAFF030EE926000EEA22EF2A1F0E106EA6
:10037000FD0EDBCFE9FFFE0EDBCFEAFF030EE92621
:10038000000EEA221050EF16FD0EDBCFE9FFFE0E45
:10039000DBCFEAFFEE52EF0608D0DF6AFD0EDBCFBF
:1003A000E9FFFE0EDBCFEAFFEF82DF50E552E552B8
:1003B000E7CFD9FF1200D9CFE6FFE1CFD9FFFD0E7D
:1003C000DBCFE9FFFE0EDBCFEAFFEE52EF50E55246
:1003D000E7CFD9FF1200D9CFE6FFE1CFD9FFFD0E5D
:1003E000DBCFE9FFFE0EDBCFEAFFEF50390802E278
:1003F000000E01D0010E116EFD0EDBCFE9FFFE0EE7
:10040000DBCFEAFFEFCF10F0300E105C02E2000EFF
:1004100001D0010E11144DE1FD0EDBCFE9FFFE0E00
:10042000DBCFEAFFEF50460802E2000E01D0010EDA
:10043000116EFD0EDBCFE9FFFE0EDBCFEAFFEFCF43
:1004400010F0410E105C02E2000E01D0010E1114FA
:1004500030E1FD0EDBCFE9FFFE0EDBCFEAFFEF5010
:10046000660802E2000E01D0010E116EFD0EDBCF18
:10047000E9FFFE0EDBCFEAFFEFCF10F0610E105C5C
:1004800002E2000E01D0010E111415E0FD0EDBCFCB
:10049000E9FFFE0EDBCFEAFFEF509F0F410FE66E44
:1004A000FD0EDBCFE9FFFE0EDBCFEAFFE552E750A2
:1004B000EF6E010E01D0000EE552E7CFD9FF12001A
:1004C000D9CFE6FFE1CFD9FFFE0EDB50390802E2BB
:1004D000000E01D0010E106E300EF36EFE0EDBCF5B
:1004E000F4FFF350F45C02E2000E01D0010E101490
:1004F00004E0FE0EDB50D00F34D0FE0EDB50460879
:1005000002E2000E01D0010E106E410EF36EFE0EDF
:10051000DBCFF4FFF350F45C02E2000E01D0010ED9
:10052000101404E0FE0EDB50BF0F18D0FE0EDB509F
:10053000660802E2000E01D0010E106E610EF36E2D
:10054000FE0EDBCFF4FFF350F45C02E2000E01D0AC
:10055000010E101405E0FE0EDB509F0F0A0F01D0B4
:10056000000EE552E7CFD9FF1200D9CFE6FFE1CF69
:10057000D9FF0A0EF36EFE0EDBCFF4FFF350F45CEE
:1005800004E2FE0EDB50300F04D0FE0EDB50F60FFF
:10059000410FE552E7CFD9FF1200D9CFE6FFE1CFF7
:1005A000D9FF949C948E400EB06E7E96AD94AD981B
:1005B000AC8E9D889D8A9F989F9AAD9CAC9CAD9A6D
:1005C000AC88FD0EDBCFE9FFFE0EDBCFEAFF280E85
:1005D000E926000EEA22E9CF10F0EACF11F0E9CFC8
:1005E000E6FFEACFE6FFB2DDE552E552FD0EDBCFD6
:1005F000E9FFFE0EDBCFEAFF040EE926000EEA2239
:10060000E9CF10F0EACF11F0E9CFE6FFEACFE6FF3D
:100610009DDDE552E552FD0EDBCFE9FFFE0EDBCF9F
:10062000EAFF020EE926000EEA22EF6AFD0EDBCF9A
:10063000E9FFFE0EDBCFEAFF030EE926000EEA22F9
:10064000EF6AFD0EDBCFE9FFFE0EDBCFEAFFEF9492
:10065000FD0EDBCFE9FFFE0EDBCFEAFFEF96FD0ECE
:10066000DBCFE9FFFE0EDBCFEAFFEF90FD0EDBCF25
:10067000E9FFFE0EDBCFEAFFEF88FD0EDBCFE9FFDF
:10068000FE0EDBCFEAFFEF9AFD0EDBCFE9FFFE0E99
:10069000DBCFEAFF4C0EE926000EEA22E9CF10F08C
:1006A000EACF11F0E9CFE6FFEACFE6FFBFDCE55283
:1006B000E552FD0EDBCFE9FFFE0EDBCFEAFFEE5287
:1006C000EF6AE552E7CFD9FF1200D9CFE6FFE1CFBD
:1006D000D9FFE652FD0EDBCFE6FFFE0EDBCFE6FFD5
:1006E000D8EC09F0E552E552FD0EDBCFE9FFFE0E36
:1006F000DBCFEAFF280EE926000EEA22E9CF10F050
:10070000EACF11F0E9CFE6FFEACFE6FF54DEE5528B
:10071000E552000902E1E3EF07F0FD0EDBCFE9FF50
:10072000FE0EDBCFEAFF280EE926000EEA22E9CF13
:1007300010F0EACF11F0E9CFE6FFEACFE6FFDDDD0A
:10074000E552E552DF6EFD0EDBCFE9FFFE0EDBCF9B
:10075000EAFFEE52EF50080A01E195D30F0A01E1DA
:1007600033D3010A01E13FD2030A01E1D3D1010AE7
:1007700001E12CD1070A01E1C0D0010A50E0030ACF
:100780000BE0010A02E0DBEF07F02A0EDF5C02E07B
:10079000E3EF07F0C7EF07F02A0EDF5C01E1F7D3C4
:1007A000D9CFE6FFDACFE6FF16DEE552E5520009C3
:1007B00002E1DBEF07F0FD0EDBCFE9FFFE0EDBCF42
:1007C000EAFF650EE926000EEA22DF50EF26DFCFB2
:1007D000E6FF76DEE552E66EFD0EDBCFE9FFFE0EAC
:1007E000DBCFEAFF660EE926000EEA22E552E7506B
:1007F000EF6EFD0EDBCFE9FFFE0EDBCFEAFF660EEC
:10080000E926000EEA22EF38F00BEF6EFD0EDBCF8B
:10081000E9FFFE0EDBCFEAFFEE52020ED3D22A0E24
:10082000DF5C01E1B4D3D9CFE6FFDACFE6FFD3DD59
:10083000E552E552000901E1BED3FD0EDBCFE9FF31
:10084000FE0EDBCFEAFF650EE926000EEA22DF503E
:10085000EF26DFCFE6FF34DEE552106EFD0EDBCF74
:10086000E9FFFE0EDBCFEAFF660EE926000EEA2264
:10087000EF501024E66EFD0EDBCFE9FFFE0EDBCF5E
:10088000EAFF660EE926000EEA22E552E750EF6E17
:10089000FD0EDBCFE9FFFE0EDBCFEAFF660EE92699
:1008A000000EEA22EF50E66EFD0EDBCFE9FFFE0EF2
:1008B000DBCFEAFF630EE926000EEA22E552E7509D
:1008C000EF6EFD0EDBCFE9FFFE0EDBCFEAFFEE524F
:1008D000030EEF6EFD0EDBCFE9FFFE0EDBCFEAFF6E
:1008E000620EE926000EEA22EF6AFD0EDBCFE9FF79
:1008F000FE0EDBCFEAFF640E5AD32A0EDF5C01E165
:1009000046D3D9CFE6FFDACFE6FF65DDE552E55203
:10091000000901E150D3FD0EDBCFE9FFFE0EDBCF76
:10092000EAFF650EE926000EEA22DF50EF26DFCF50
:10093000E6FFC6DDE552E66EFD0EDBCFE9FFFE0EFB
:10094000DBCFEAFF660EE926000EEA22E552E75009
:10095000EF6EFD0EDBCFE9FFFE0EDBCFEAFF660E8A
:10096000E926000EEA22EF38F00BEF6EFD0EDBCF2A
:10097000E9FFFE0EDBCFEAFFEE52040EEF6EFD0E36
:10098000DBCFE9FFFE0EDBCFEAFF620EE926000EA9
:10099000EA22EF2AFD0EDBCFE9FFFE0EDBCFEAFFF6
:1009A000620EE926000EEA22EFCF10F0FD0EDBCF3B
:1009B000E9FFFE0EDBCFEAFF630EE926000EEA2216
:1009C000EF50D880105401E3FED2F5D22A0EDF5C3E
:1009D00001E1DDD2D9CFE6FFDACFE6FFFCDCE5525C
:1009E000E552000901E1E7D2FD0EDBCFE9FFFE0E83
:1009F000DBCFEAFF650EE926000EEA22DF50EF2684
:100A0000DFCFE6FF5DDDE552106EFD0EDBCFE9FFC7
:100A1000FE0EDBCFEAFF660EE926000EEA22EF505B
:100A20001024E66EFD0EDBCFE9FFFE0EDBCFEAFF02
:100A3000660EE926000EEA22E552E750EF6EFD0E43
:100A4000DBCFE9FFFE0EDBCFEAFF640EE926000EE6
:100A5000EA22EF50E66EFD0EDBCFE9FFFE0EDBCFA4
:100A6000EAFF660EE926000EEA22EF50E66EFD0E62
:100A7000DBCFE9FFFE0EDBCFEAFF4C0EE926000ECE
:100A8000EA22E9CF10F0EACF11F0E9CFE6FFEACF92
:100A9000E6FF3BEC00F0E552E552E552E552FD0E73
:100AA000DBCFE9FFFE0EDBCFEAFFEE52050EEF6E65
:100AB000FD0EDBCFE9FFFE0EDBCFEAFF620EE9267B
:100AC000000EEA22EF2AFD0EDBCFE9FFFE0EDBCFA0
:100AD000EAFF640EE926000EEA22EF2AFD0EDBCFC4
:100AE000E9FFFE0EDBCFEAFF620EE926000EEA22E6
:100AF000EFCF10F0FD0EDBCFE9FFFE0EDBCFEAFFFC
:100B0000630EE926000EEA22EF50D880105401E36C
:100B10005AD251D22A0EDF5C01E139D2D9CFE6FF99
:100B2000DACFE6FF58DCE552E552000901E143D295
:100B3000FD0EDBCFE9FFFE0EDBCFEAFF650EE926F7
:100B4000000EEA22DF50EF26DFCFE6FFB9DCE552E8
:100B5000E66EFD0EDBCFE9FFFE0EDBCFEAFF660E91
:100B6000E926000EEA22E552E750EF6EFD0EDBCFDC
:100B7000E9FFFE0EDBCFEAFF660EE926000EEA2251
:100B8000EF38F00BEF6EFD0EDBCFE9FFFE0EDBCF93
:100B9000EAFFEE52060EEF6EFD0EDBCFE9FFFE0E12
:100BA000DBCFEAFF620EE926000EEA22EF2AFD0EF5
:100BB000DBCFE9FFFE0EDBCFEAFF620EE926000E77
:100BC000EA22EFCF10F0FD0EDBCFE9FFFE0EDBCF08
:100BD000EAFF630EE926000EEA22EF50D880105497
:100BE00001E3F1D1E8D12A0EDF5C01E1D0D1D9CF08
:100BF000E6FFDACFE6FFEBEC01F0E552E552000943
:100C000001E1D9D1FD0EDBCFE9FFFE0EDBCFEAFF1C
:100C1000650EE926000EEA22DF50EF26DFCFE6FF61
:100C20004FDCE552106EFD0EDBCFE9FFFE0EDBCF91
:100C3000EAFF660EE926000EEA22EF501024E66E67
:100C4000FD0EDBCFE9FFFE0EDBCFEAFF660EE926E5
:100C5000000EEA22E552E750EF6EFD0EDBCFE9FF12
:100C6000FE0EDBCFEAFF640EE926000EEA22EF500B
:100C7000E66EFD0EDBCFE9FFFE0EDBCFEAFF660E70
:100C8000E926000EEA22EF50E66EFD0EDBCFE9FF0B
:100C9000FE0EDBCFEAFF4C0EE926000EEA22E9CF7A
:100CA00010F0EACF11F0E9CFE6FFEACFE6FF3BEC28
:100CB00000F0E552E552E552E552FD0EDBCFE9FFCB
:100CC000FE0EDBCFEAFFEE52050EEF6EFD0EDBCF20
:100CD000E9FFFE0EDBCFEAFF620EE926000EEA22F4
:100CE000EF2AFD0EDBCFE9FFFE0EDBCFEAFF640E3D
:100CF000E926000EEA22EF2AFD0EDBCFE9FFFE0E09
:100D0000DBCFEAFF620EE926000EEA22EFCF10F0F9
:100D1000FD0EDBCFE9FFFE0EDBCFEAFF630EE92617
:100D2000000EEA22EF50D880105408E2FD0EDBCF0F
:100D3000E9FFFE0EDBCFEAFFEE52EF6AFD0EDBCFDE
:100D4000E9FFFE0EDBCFEAFF620EE926000EEA2283
:100D5000EFCF10F0FD0EDBCFE9FFFE0EDBCFEAFF99
:100D6000630EE926000EEA22EF50105C09E2FD0E48
:100D7000DBCFE9FFFE0EDBCFEAFFEE52030E22D0FF
:100D8000FD0EDBCFE9FFFE0EDBCFEAFFEE52070ED2
:100D9000EF6EFD0EDBCFE9FFFE0EDBCFEAFF630E49
:100DA000E926000EEA22EF50020FE66EFD0EDBCFC1
:100DB000E9FFFE0EDBCFEAFF630EE926000EEA2212
:100DC000E552E750EF6EFFD02A0EDF5C01E1DFD085
:100DD000D9CFE6FFDACFE6FFEBEC01F0E552E552C2
:100DE000000901E1E8D0DFCFE6FF60EC02F0E55258
:100DF000E66EFD0EDBCFE9FFFE0EDBCFEAFF660EEF
:100E0000E926000EEA22E552E750EF6EFD0EDBCF39
:100E1000E9FFFE0EDBCFEAFF660EE926000EEA22AE
:100E2000EF38F00BEF6EFD0EDBCFE9FFFE0EDBCFF0
:100E3000EAFFEE52080EEF6EFD0EDBCFE9FFFE0E6D
:100E4000DBCFEAFF620EE926000EEA22EF2AFD0E52
:100E5000DBCFE9FFFE0EDBCFEAFF620EE926000ED4
:100E6000EA22EFCF10F0FD0EDBCFE9FFFE0EDBCF65
:100E7000EAFF630EE926000EEA22EF50D8801054F4
:100E800001E3A1D098D02A0EDF5C01E180D0D9CF58
:100E9000E6FFDACFE6FFEBEC01F0E552E5520009A0
:100EA00001E189D0DFCFE6FF60EC02F0E552106E81
:100EB000FD0EDBCFE9FFFE0EDBCFEAFF660EE92673
:100EC000000EEA22EF501024E66EFD0EDBCFE9FFA4
:100ED000FE0EDBCFEAFF660EE926000EEA22E5529F
:100EE000E750EF6EFD0EDBCFE9FFFE0EDBCFEAFF32
:100EF000660EE926000EEA22EFCF10F0FD0EDBCFE2
:100F0000E9FFFE0EDBCFEAFF650EE926000EEA22BE
:100F1000EF50105C50E1FD0EDBCFE9FFFE0EDBCFA2
:100F2000EAFF640EE926000EEA22EF50E66EFD0E9F
:100F3000DBCFE9FFFE0EDBCFEAFF4C0EE926000E09
:100F4000EA22E9CF10F0EACF11F0E9CFE6FFEACFCD
:100F5000E6FF7DEC00F0E552E552E552FD0EDBCFF9
:100F6000E9FFFE0EDBCFEAFFEF50040B08E0FD0EB9
:100F7000DBCFE9FFFE0EDBCFEAFFEF8624D0FD0ECC
:100F8000DBCFE9FFFE0EDBCFEAFFEF841CD0FD0EC6
:100F9000DBCFE9FFFE0EDBCFEAFFEE52010EEF6E74
:100FA000FD0EDBCFE9FFFE0EDBCFEAFF650EE92683
:100FB000000EEA2207D0FD0EDBCFE9FFFE0EDBCFED
:100FC000EAFFEE52EF6AE552E552E7CFD9FF120091
:100FD000D9CFE6FFE1CFD9FFFD0EDBCFE9FFFE0E53
:100FE000DBCFEAFFEF50040B01E0010EE552E7CF43
:100FF000D9FF1200D9CFE6FFE1CFD9FFFD0EDBCF3D
:10100000E9FFFE0EDBCFEAFFEF94E552E7CFD9FF11
:101010001200D9CFE6FFE1CFD9FF020EE126FD0E87
:10102000DBCFE9FFFE0EDBCFEAFFEF50040B65E0FC
:10103000FD0EDBCFE9FFFE0EDBCFEAFF4C0EE9260B
:10104000000EEA22EFCFDFFFFD0EDBCFE9FFFE0E41
:10105000DBCFEAFF4C0EE926000EEA22EF50E66EE7
:10106000FB0EDBCFE9FFFC0EDBCFEAFFE552E750DA
:10107000EF6E010EDB6AFD0EDBCFE9FFFE0EDBCF6C
:10108000EAFF4C0EE926000EEA22EF50F36E010E45
:10109000DBCFF4FFF350F45C28E2FD0EDBCFE9FF79
:1010A000FE0EDBCFEAFF4C0EE926000EEA22EE52DE
:1010B000010EDB50E924E96E000EEA20EA6EEF50E3
:1010C000E66EFB0EDBCFE9FFFC0EDBCFEAFFEE5254
:1010D000010EDB50E924E96E000EEA20EA6EE552CB
:1010E000E750EF6E010EDB2AC6D7FD0EDBCFE9FF1E
:1010F000FE0EDBCFEAFFEF940CD0E66AFB0EDBCFEF
:10110000E6FFFC0EDBCFE6FF7DEC00F0E552E5529A
:10111000E552020EE15C02E2E16AE552E16EE5525F
:10112000E7CFD9FF1200D9CFE6FFE1CFD9FFFD0EFF
:10113000DBCFE9FFFE0EDBCFEAFFEF50040B28E028
:10114000FD0EDBCFE9FFFE0EDBCFEAFF4C0EE926FA
:10115000000EEA22EF50F36EFC0EDBCFF4FFF350EB
:10116000F45C14E2FD0EDBCFE9FFFE0EDBCFEAFFFD
:101170004C0EE926000EEA22EE52FC0EDB50E9246A
:10118000E96E000EEA20EA6EEF5003D0000E01D0A7
:10119000000EE552E7CFD9FF1200D9CFE6FFE1CF2D
:1011A000D9FFFD0EDBCFE9FFFE0EDBCFEAFFEF50EC
:1011B000040B0CE0FD0EDBCFE9FFFE0EDBCFEAFFF8
:1011C0004C0EE926000EEA22EF5001D0000EE55247
:1011D000E7CFD9FF1200D9CFE6FFE1CFD9FFFD0E4F
:1011E000DBCFE9FFFE0EDBCFEAFF570EE926000E4C
:1011F000EA22EF5002E0000E01D0010EE552E7CFE7
:10120000D9FF1200D9CFE6FFE1CFD9FFE652FD0E9C
:10121000DBCFE9FFFE0EDBCFEAFF570EE926000E1B
:10122000EA22EF5002E0000E5ED0DF6AFB0EDBCF59
:10123000E9FFFC0EDBCFEAFFEF50DF5C37E2FB0E8D
:10124000DBCFE9FFFC0EDBCFEAFFEE52E9CF14F073
:10125000EACF15F0DFCF16F0176A16BE17681450E4
:101260001624E96E15501720EA6EEF50E66EFD0E5B
:10127000DBCFE9FFFE0EDBCFEAFF570EE926000EBB
:10128000EA22EE52E9CF10F0EACF11F0DFCF12F0F0
:10129000136A12BE136810501224E96E1150132005
:1012A000EA6EE552E750EF6EDF2AC0D7FB0EDBCFC8
:1012B000E9FFFC0EDBCFEAFFEF50E66EFD0EDBCF61
:1012C000E9FFFE0EDBCFEAFF570EE926000EEA2209
:1012D000E552E750EF6EFB0EDBCFE9FFFC0EDBCFF4
:1012E000EAFFEF6A010EE552E552E7CFD9FF12009F
:1012F000D9CFE6FFE1CFD9FF0A0EF36EFB0EDBCFAD
:10130000F4FFF350F45C0CE2FD0EDBCFE9FFFE0EC0
:10131000DBCFEAFF570EE926000EEA22EF5002E08B
:10132000000E16D0FD0EDBCFE9FFFE0EDBCFEAFF8D
:10133000570EE926000EEA22EE52FB0EDB50E9249E
:10134000E96E000EEA20EA6EFC0EDBCFEFFF010E25
:10135000E552E7CFD9FF1200D9CFE6FFE1CFD9FFA1
:101360000A0EF36EFC0EDBCFF4FFF350F45C0CE2DC
:10137000FD0EDBCFE9FFFE0EDBCFEAFF570EE926BD
:10138000000EEA22EF5002E0000E0ED0FD0EDBCF81
:10139000E9FFFE0EDBCFEAFF570EE926000EEA2238
:1013A000FC0EDBCFEFFF010EE552E7CFD9FF1200B5
:1013B000D9CFE6FFE1CFD9FF060EE126FD0EDBCF48
:1013C000E9FFFE0EDBCFEAFF570EE926000EEA2208
:1013D000EF5001E1A4D1ADBAA2D12A0EE66EFD0E06
:1013E000DBCFE9FFFE0EDBCFEAFF040EE926000E9D
:1013F000EA22E9CF10F0EACF11F0E9CFE6FFEACF19
:10140000E6FF1FEC01F0E552E552E552DF6AFD0E02
:10141000DBCFE9FFFE0EDBCFEAFF570EE926000E19
:10142000EA22EF50020D010EF3CFDBFFDB50E76E37
:10143000030EE7CFDBFFDB380F0BF36E030EF3CFAA
:10144000DBFFDB98DB9ADB9CDB9EDBCFE6FFB5ECBA
:1014500002F0E552E76E030EE7CFDBFFDB50DF263D
:10146000010EDB500F0BE76E040EE7CFDBFFDBCF87
:10147000E6FFB5EC02F0E552E76E040EE7CFDBFFC6
:10148000DB50DF26030EDBCFE6FFFD0EDBCFE9FFEF
:10149000FE0EDBCFEAFF040EE926000EEA22E9CFBA
:1014A00010F0EACF11F0E9CFE6FFEACFE6FF1FEC3C
:1014B00001F0E552E552E552040EDBCFE6FFFD0EEA
:1014C000DBCFE9FFFE0EDBCFEAFF040EE926000EBC
:1014D000EA22E9CF10F0EACF11F0E9CFE6FFEACF38
:1014E000E6FF1FEC01F0E552E552E552010EDBCFBD
:1014F000F3FFF390F342F3CFDBFF050EDB6A0A0E36
:10150000F36E050EDBCFF4FFF350F45C02E3000E44
:1015100001D0010E106E010EDB50F36E050EDBCF15
:10152000F4FFF350F45C02E3000E01D0010E10143E
:1015300001E17DD0FD0EDBCFE9FFFE0EDBCFEAFF40
:10154000570EE926000EEA22EE52E9CF10F0EACF5C
:1015500011F0050EDB500F01E924E96E000EEA20C0
:10156000EA6E020EEFCFDBFFDB50E76E030EE7CF34
:10157000DBFFDB380F0BF36E030EF3CFDBFFDB98E3
:10158000DB9ADB9CDB9EDBCFE6FFB5EC02F0E5529D
:10159000E76E030EE7CFDBFFDB50DF26020EDB50EA
:1015A0000F0BE76E040EE7CFDBFFDBCFE6FFB5ECFA
:1015B00002F0E552E76E040EE7CFDBFFDB50DF26DB
:1015C000030EDBCFE6FFFD0EDBCFE9FFFE0EDBCF28
:1015D000EAFF040EE926000EEA22E9CF10F0EACF76
:1015E00011F0E9CFE6FFEACFE6FF1FEC01F0E5528C
:1015F000E552E552040EDBCFE6FFFD0EDBCFE9FF3F
:10160000FE0EDBCFEAFF040EE926000EEA22E9CF48
:1016100010F0EACF11F0E9CFE6FFEACFE6FF1FECCA
:1016200001F0E552E552E552050EDB2A68D7030EBC
:10163000DFCFDBFFDB380F0BF36E030EF3CFDBFFE7
:10164000DB98DB9ADB9CDB9EDBCFE6FFB5EC02F0A0
:10165000E552E76E030EE7CFDBFF0F0EDF14E76EF8
:10166000040EE7CFDBFFDBCFE6FFB5EC02F0E5527F
:10167000E76E040EE7CFDBFF030EDBCFE6FFFD0EC8
:10168000DBCFE9FFFE0EDBCFEAFF040EE926000EFA
:10169000EA22E9CF10F0EACF11F0E9CFE6FFEACF76
:1016A000E6FF1FEC01F0E552E552E552040EDBCFF8
:1016B000E6FFFD0EDBCFE9FFFE0EDBCFEAFF040EF7
:1016C000E926000EEA22E9CF10F0EACF11F0E9CFC7
:1016D000E6FFEACFE6FF1FEC01F0E552E552E552E6
:1016E000FD0EDBCFE9FFFE0EDBCFEAFF570EE9264A
:1016F000000EEA22EF6AFD0EDBCFE9FFFE0EDBCF24
:10170000EAFFEF50100B01E0AD8AFD0EDBCFE9FFE1
:10171000FE0EDBCFEAFFEF50200B01E0A88A060E99
:10172000E15C02E2E16AE552E16EE552E7CFD9FF02
:101730001200D9CFE6FFE1CFD9FF9EA862D0FD0EFF
:10174000DBCFE9FFFE0EDBCFEAFF020EE926000E3B
:10175000EA22EF501AE0AE6AFD0EDBCFE9FFFE0E83
:10176000DBCFEAFF020EE926000EEA22EF06FD0EAD
:10177000DBCFE9FFFE0EDBCFEAFF020EE926000E0B
:10178000EA22EF503EE1AD9A3CD0FD0EDBCFE9FFFF
:10179000FE0EDBCFEAFF040EE926000EEA22E9CFB7
:1017A00010F0EACF11F0E9CFE6FFEACFE6FFDBEC7D
:1017B00001F0E552E552000918E0FD0EDBCFE9FF2C
:1017C000FE0EDBCFEAFF040EE926000EEA22E9CF87
:1017D00010F0EACF11F0E9CFE6FFEACFE6FF7DECAB
:1017E00001F0E552E552AE6E0CD0FD0EDBCFE9FF05
:1017F000FE0EDBCFEAFF020EE926000EEA22030E00
:10180000EF6E9EAA26D0AF50E66EFD0EDBCFE9FF4D
:10181000FE0EDBCFEAFF280EE926000EEA22E9CF12
:1018200010F0EACF11F0E9CFE6FFEACFE6FF1FECB8
:1018300001F0E552E552E552AC50040B01E0010E17
:10184000106EAC50020B01E0010E101002E0AC98DB
:0A185000AC88E552E7CFD9FF120083
:06185A009B8C6FDA5CDAE2
:1018600077DA83DA8ADA90DA9ADAD60EE66E000E42
:10187000E66EDEEC12F0E552E552D80EE66E000E92
:10188000E66EDEEC12F0E552E552D20EE66E000E88
:10189000E66EDEEC12F0E552E552CC0EE66E000E7E
:1018A000E66EDEEC12F0E552E552CE0EE66E000E6C
:1018B000E66EDEEC12F0E552E552D00EE66E000E5A
:1018C000E66EDEEC12F0E552E552D40EE66E000E46
:1018D000E66EDEEC12F0E552E552DA0EE66E000E30
:1018E000E66E7FEC10F0E552E55280DA8ADA83DAB0
:1018F0005ADA5BDA600EE66E000EE66ECDEC02F0B0
:10190000E552E5520001F95101E1FBD10001F96B0B
:101910000001DC078150010BE66ECC0EE66E000E76
:10192000E66EF6EC12F0E552E552E5528050200BDF
:1019300001E0010EE66ECE0EE66E000EE66EF6ECEF
:1019400012F0E552E552E5528850800B01E0010E9D
:10195000E66ED00EE66E000EE66EF6EC12F0E55284
:10196000E552E5528850400B01E0010EE66ED20EC2
:10197000E66E000EE66EF6EC12F0E552E552E55228
:101980008850200B01E0010EE66ED40EE66E000ECC
:10199000E66EF6EC12F0E552E552E5520001CD514B
:1019A0000001E8B0F781E8A0F7910001CF510001F4
:1019B000E8B0F783E8A0F7930001D1510001E8B047
:1019C000F785E8A0F7950001D3510001E8B0F7874B
:1019D000E8A0F7970001D5510001E8B0F789E8A029
:1019E000F79900010001F751010B09E10001000125
:1019F000F551010B04E10001F5810001F3710001D3
:101A00000001F751010B07E000010001F551010B46
:101A100002E00001F59100010001F751020B09E11C
:101A200000010001F551020B04E10001F583000102
:101A3000F37300010001F751020B05E00001000102
:101A4000F551020B00E00001F7A510D000010001E4
:101A5000F751100B02E0859E01D0858E0001000138
:101A6000F751100B02E0839601D083860001F7A99D
:101A700010D000010001F751040B02E0889801D05A
:101A8000888800010001F751040B02E0839401D023
:101A9000838400010001F751080B0AE100010001F5
:101AA000F551080B05E10001F5870001F377837E0E
:101AB00000010001F751080B07E000010001F5519A
:101AC000080B02E00001F5970001DC5174E1000110
:101AD000320EDC6F600EE66E000EE66EE8EC07F08C
:101AE000E552E552000967E0600EE66E000EE66E14
:101AF000EBEC08F0E552E55200095DE0600EE66EA1
:101B0000000EE66ECDEC08F0E552E5520001C76F1D
:101B10000001C86B0001C7510001C85D37E2C8C0B1
:101B2000E6FF600EE66E000EE66E93EC08F0E552FE
:101B3000E552E552E66E0001C851E96EEA6AD890B6
:101B4000E936EA36DD0EE926000EEA22E552E750D4
:101B5000EE6EED6AC8C0E6FF0001C851E96EEA6AA0
:101B6000D890E936EA36DD0EE926000EEA22EF507B
:101B7000E66E600EE66E000EE66E78EC09F0E55259
:101B8000E552E552E5520001C82BC4D7E3C0FAF094
:101B9000C7C0E6FF600EE66E000EE66EACEC09F024
:101BA000E552E552E552600EE66E000EE66EFAEC86
:101BB00007F0E552E5520001F3A76BD08850010B06
:101BC000E66ED60EE66E000EE66EF6EC12F0E5520C
:101BD000E552E552E8B08C8CE8A08C9C8850020B52
:101BE00001E0010EE66ED80EE66E000EE66EF6EC33
:101BF00012F0E552E552E552E8B08C8AE8A08C9AE2
:101C0000D7C0CAF0D9C0CBF0CBC0E6FFCAC0E6FF50
:101C1000DA0EE66E000EE66E96EC10F0E552E55236
:101C2000E552E552DBC087FF0001EC93DBC0FCF01E
:101C30000001FD6BFCBFFD690001E30EFD03F3CF66
:101C4000FDF0E30EFC03F3CFFCF0F450FD27400E53
:101C50000D6E0E6AFCC008F0FDC009F011EC14F026
:101C600008C0FCF009C0FDF000010A0EFD03F3CF2F
:101C7000FDF00A0EFC03F3CFFCF0F450FD27880EB4
:101C80000001FC27130E0001FD230001EC839DD809
:101C900038D0FAC087FFFAC0FBF00001EC93FBC01C
:101CA000FCF00001FD6BFCBFFD690001E30EFD03CC
:101CB000F3CFFDF0E30EFC03F3CFFCF0F450FD276F
:101CC000400E0D6E0E6AFCC008F0FDC009F011EC6C
:101CD00014F008C0FCF009C0FDF000010A0EFD037D
:101CE000F3CFFDF00A0EFC03F3CFFCF0F450FD2718
:101CF000880E0001FC27130E0001FD230001EC8378
:101D000056D8600EE66E000EE66E65EC03F0E55206
:101D1000E552F8D500001200996A876A956A836ACD
:101D200098989690969284908492C088C168C26870
:101D3000C0989794979A979E9A9812009A809A8240
:101D40009A8C9380928A9A8E9A8A988098861200AA
:101D5000CA94CA92CA80CA8CCA9ACA98CA86F90E0C
:101D6000CB6E9E929D829F9212007990799A799A79
:101D7000798E798C798679921200B196B184B1927C
:101D8000B180A580A3801200A384A584708670947E
:101D900070927090100E716E270E726E1200D08EBF
:101DA000F28EF28C1200CA84120079801200810E29
:101DB0000001FA5D02E1848007D07F0EFA5D02E146
:101DC000848202D0849084921200810E0001DB5D37
:101DD00002E1848007D07F0EDB5D02E1848202D0C5
:101DE0008490849212008490849212000001EC810D
:101DF000EC83EC9712000001F36BF46BF56BF66B60
:101E000012000001ED6BEE6BEF6BF06BF16B1200EB
:101E1000DACFE4FFE2CFDAFFE9CFE4FFEACFE4FF75
:101E2000E652D9CFE6FFE1CFD9FF060EE12671CF0A
:101E3000DEFF72CFDDFF0001ECA306D0020EFCC076
:101E4000DBFF030EFDC0DBFFA49486A816D07080D4
:101E5000020EDBCF18F0030EDBCF19F0100ED88086
:101E60001856270E1956D9CFE9FFDACFEAFF1850D6
:101E7000EE261950ED22839010D07090020EDBCF29
:101E800018F0030EDBCF19F0D9CFE9FFDACFEAFF64
:101E90001850EE261950ED228380DECF18F0DDCFEA
:101EA00019F019C018F0196A1850726EDF50716E6F
:101EB000A450010B04E1A150020B01E1B0D0EC9958
:101EC000A450010B01E0EC89EC9BA150020B01E056
:101ED000EC8BEC51100B04E08650080B01E1EC9503
:101EE000EC51100B04E08650080B01E0EC85ECB7D8
:101EF00022D0EC51100B13E0EC51200B10E0B2CFCC
:101F0000F0F0B3CFF1F0F151800803E2010EF26F6F
:101F100002D0010EF26FEC97A490EC9B0BD0EF6B0C
:101F2000ECA907D0B2CFF0F0B3CFF1F0EC87A490DA
:101F300001D0A1926ED0B2CFEDF0B3CFEEF0EC5164
:101F4000100B43E0EC51200B40E0EE517F081CE207
:101F5000F00EE96E000EEA6EEE50ED5D186EEE507A
:101F6000EE59196EEE50EF591A6E040E18C0DBFFD1
:101F7000050E19C0DBFFEDC0F0F0EEC0F1F0EFC0D0
:101F8000F2F0010EEF6F20D0EF2BEF51030802E2C9
:101F9000EC971AD0F00EE96E000EEA6EEE50ED5D91
:101FA000186EEE50EE59196EEE50EF591A6E040E7F
:101FB00018C0DBFF050E19C0DBFFEDC0F0F0EEC06E
:101FC000F1F0EFC0F2F0EF6B24D0ECAB07D0EF2BC9
:101FD000EF51030801E2EC97A1921BD0F00EE96EDD
:101FE000000EEA6EEE50ED5D186EEE50EE59196E71
:101FF000EE50EF591A6E040E18C0DBFF050E19C023
:10200000DBFFEDC0F0F0EEC0F1F0EFC0F2F0EF6BEF
:10201000A490040EDBCFE7F0050EDBCFE8F0060E50
:10202000E15C02E2E16AE552E16EE552E7CFD9FFF9
:10203000E552E5CFEAFFE5CFE9FFE5CFDAFF110092
:10204000D8CFE4FFE0CFE4FFE46EDACFE4FFE2CFE5
:10205000DAFFE9CFE4FFEACFE4FFF6CFE4FFF7CF02
:10206000E4FFF5CFE4FFF3CFE4FFF4CFE4FFFACFD2
:10207000E4FF00EE00F0100EE80403E3EECFE4FF0F
:10208000FBD700EE10F0080EE80403E3EECFE4FF08
:10209000FBD7E6520001010EF96F9E92600EE66ECC
:1020A000000EE66E99EC0BF0E552E552E55200EEBB
:1020B00017F0080EE80403E3E5CFEDFFFBD700EED1
:1020C0000FF0100EE80403E3E5CFEDFFFBD7E5CFFB
:1020D000FAFFE5CFF4FFE5CFF3FFE5CFF5FFE5CF5E
:1020E000F7FFE5CFF6FFE5CFEAFFE5CFE9FFE5CF64
:0E20F000DAFFE550E5CFE0FFE5CFD8FF1000A6
:0220FE00D9CF38
:10210000E6FFE1CFD9FFFD0EDBCFE9FFFE0EDBCF0F
:10211000EAFFEF6AFD0EDBCFE9FFFE0EDBCFEAFF41
:10212000EE52EF6AE552E7CFD9FF1200D9CFE6FFB2
:10213000E1CFD9FF040EE126FD0EDBCFE9FFFE0E55
:10214000DBCFEAFFEF50040A01E1AFD1070A01E15A
:1021500038D1010A01E1C1D0030A4BE0010A04E0D1
:1021600018D2DF6A010EDB6AFC0EDB50E76E020E4E
:10217000E7CFDBFFFB0EDB50E76E030EE7CFDBFFA5
:10218000FC0EDB500BE1FB0EDB5008E1FD0EDBCF5C
:10219000E9FFFE0EDBCFEAFF010EEF6EFC0EDB0463
:1021A0000BE1FB0EDB5008E1FD0EDBCFE9FFFE0E7D
:1021B000DBCFEAFF020EEF6EFC0EDB040BE1FB0E41
:1021C000DB0408E1FD0EDBCFE9FFFE0EDBCFEAFF0B
:1021D000030EEF6EFC0EDB500BE1FB0EDB0408E19F
:1021E000FD0EDBCFE9FFFE0EDBCFEAFF040EEF6E44
:1021F000D0D1FC0EDB5029E1FB0EDB5026E0FD0EBA
:10220000DBCFE9FFFE0EDBCFEAFFEECF10F0EFCF22
:1022100011F0810E0001E76E1118E8AE02D0113402
:1022200003D0E750D880115410E2FD0EDBCFE9FF58
:10223000FE0EDBCFEAFF040EEF6EFD0EDBCFE9FFF3
:10224000FE0EDBCFEAFFEE52EF06FC0EDB5028E07D
:10225000FB0EDB5025E1FD0EDBCFE9FFFE0EDBCFF1
:10226000EAFFEECF10F0EFCF11F07F0E0001E76E26
:102270001118E8AE02D0E73402D0E750115C10E24A
:10228000FD0EDBCFE9FFFE0EDBCFEAFF020EEF6EA5
:10229000FD0EDBCFE9FFFE0EDBCFEAFFEE52EF2AA9
:1022A000FD0EDBCFE9FFFE0EDBCFEAFFEE52EF5073
:1022B00081080AE0FD0EDBCFE9FFFE0EDBCFEAFF6F
:1022C000EE52EF507F0808E1FD0EDBCFE9FFFE0E76
:1022D000DBCFEAFFEF6A5DD15CD1FC0EDB0428E1C5
:1022E000FB0EDB5025E0FD0EDBCFE9FFFE0EDBCF62
:1022F000EAFFEECF10F0EFCF11F07F0E0001E76E96
:102300001118E8AE02D0E73402D0E750115C10E2B9
:10231000FD0EDBCFE9FFFE0EDBCFEAFF030EEF6E13
:10232000FD0EDBCFE9FFFE0EDBCFEAFFEE52EF2A18
:10233000FC0EDB0429E0FB0EDB5026E1FD0EDBCFBB
:10234000E9FFFE0EDBCFEAFFEECF10F0EFCF11F08A
:10235000810E0001E76E1118E8AE02D0113403D0EF
:10236000E750D880115410E2FD0EDBCFE9FFFE0EDE
:10237000DBCFEAFF010EEF6EFD0EDBCFE9FFFE0EB5
:10238000DBCFEAFFEE52EF06FD0EDBCFE9FFFE0EDC
:10239000DBCFEAFFEE52EF5081080AE0FD0EDBCF03
:1023A000E9FFFE0EDBCFEAFFEE52EF507F0808E1B7
:1023B000FD0EDBCFE9FFFE0EDBCFEAFFEF6AE9D0CF
:1023C000E8D0FC0EDB0429E1FB0EDB0426E0FD0E69
:1023D000DBCFE9FFFE0EDBCFEAFFEECF10F0EFCF51
:1023E00011F0810E0001E76E1118E8AE02D0113431
:1023F00003D0E750D880115410E2FD0EDBCFE9FF87
:10240000FE0EDBCFEAFF020EEF6EFD0EDBCFE9FF23
:10241000FE0EDBCFEAFFEE52EF06FC0EDB0428E0F7
:10242000FB0EDB0425E1FD0EDBCFE9FFFE0EDBCF6B
:10243000EAFFEECF10F0EFCF11F07F0E0001E76E54
:102440001118E8AE02D0E73402D0E750115C10E278
:10245000FD0EDBCFE9FFFE0EDBCFEAFF040EEF6ED1
:10246000FD0EDBCFE9FFFE0EDBCFEAFFEE52EF2AD7
:10247000FD0EDBCFE9FFFE0EDBCFEAFFEE52EF50A1
:1024800081080AE0FD0EDBCFE9FFFE0EDBCFEAFF9D
:10249000EE52EF507F0808E1FD0EDBCFE9FFFE0EA4
:1024A000DBCFEAFFEF6A75D074D0FC0EDB5028E179
:1024B000FB0EDB0425E0FD0EDBCFE9FFFE0EDBCFDC
:1024C000EAFFEECF10F0EFCF11F07F0E0001E76EC4
:1024D0001118E8AE02D0E73402D0E750115C10E2E8
:1024E000FD0EDBCFE9FFFE0EDBCFEAFF010EEF6E44
:1024F000FD0EDBCFE9FFFE0EDBCFEAFFEE52EF2A47
:10250000FC0EDB5029E0FB0EDB0426E1FD0EDBCFE9
:10251000E9FFFE0EDBCFEAFFEECF10F0EFCF11F0B8
:10252000810E0001E76E1118E8AE02D0113403D01D
:10253000E750D880115410E2FD0EDBCFE9FFFE0E0C
:10254000DBCFEAFF030EEF6EFD0EDBCFE9FFFE0EE1
:10255000DBCFEAFFEE52EF06FD0EDBCFE9FFFE0E0A
:10256000DBCFEAFFEE52EF5081080AE0FD0EDBCF31
:10257000E9FFFE0EDBCFEAFFEE52EF507F0808E1E5
:10258000FD0EDBCFE9FFFE0EDBCFEAFFEF6A01D0E5
:1025900000D0FD0EDBCFE9FFFE0EDBCFEAFFEE52EF
:1025A000EF50106E040EE15C03E200D0E16AE552E8
:0C25B000E16E1050E552E7CFD9FF120099
:0425BC00D9CFE6FF8E
:1025C000E1CFD9FFFD0EDBCFE9FFFE0EDBCFEAFF47
:1025D000EF6AFD0EDBCFE9FFFE0EDBCFEAFFEE5226
:1025E000010EEF6EE552E7CFD9FF1200D9CFE6FF1B
:1025F000E1CFD9FFFD0EDBCFE9FFFE0EDBCFEAFF17
:10260000EF50060A01E194D0030A74E0010A5DE08C
:10261000070A46E0010A2FE0030A18E0010A01E078
:10262000A4D0FC0EDB5009E0FD0EDBCFE9FFFE0E6F
:10263000DBCFEAFF010EEF6E08D0FD0EDBCFE9FF26
:10264000FE0EDBCFEAFF020EEF6E8FD0FC0EDB50EA
:1026500009E0FD0EDBCFE9FFFE0EDBCFEAFF030E44
:10266000EF6E08D0FD0EDBCFE9FFFE0EDBCFEAFFF9
:10267000020EEF6E7AD0FC0EDB5009E0FD0EDBCFD0
:10268000E9FFFE0EDBCFEAFF010EEF6E08D0FD0E74
:10269000DBCFE9FFFE0EDBCFEAFF040EEF6E65D065
:1026A000FC0EDB5009E0FD0EDBCFE9FFFE0EDBCFB9
:1026B000EAFF050EEF6E08D0FD0EDBCFE9FFFE0E40
:1026C000DBCFEAFF020EEF6E50D0FC0EDB5009E0CC
:1026D000FD0EDBCFE9FFFE0EDBCFEAFF010EEF6E52
:1026E00008D0FD0EDBCFE9FFFE0EDBCFEAFF060EC2
:1026F000EF6E3BD0FC0EDB5009E0FD0EDBCFE9FFB7
:10270000FE0EDBCFEAFF050EEF6E08D0FD0EDBCF2D
:10271000E9FFFE0EDBCFEAFF020EEF6EFD0EDBCF10
:10272000E9FFFE0EDBCFEAFFEE52010EEF6E1DD089
:10273000FC0EDB5009E0FD0EDBCFE9FFFE0EDBCF28
:10274000EAFF010EEF6E08D0FD0EDBCFE9FFFE0EB3
:10275000DBCFEAFF060EEF6EFD0EDBCFE9FFFE0ECC
:10276000DBCFEAFFEE52EF6A00D0FD0EDBCFE9FFD0
:10277000FE0EDBCFEAFFEE52EF5000D0E552E7CF7E
:04278000D9FF12006B
:0C2784001E0EF66E000EF76E000EF86ED2
:102790000F010900F550056F0900F550066F03E1C0
:1027A000056701D03DD00900F550006F0900F550D4
:1027B000016F0900F550026F09000900F550E96E3C
:1027C0000900F550EA6E090009000900F550036F91
:1027D0000900F550046F09000900F6CF07FFF7CF95
:1027E00008FFF8CF09FF00CFF6FF01CFF7FF02CFB8
:1027F000F8FF0F01035302E1045307E00900F5500D
:10280000EE6E0307F8E20407F9D707CFF6FF08CF0B
:10281000F7FF09CFF8FF0F010507000E065BBFD7D2
:022820001200A4
:0E282200006A0EAE1AEF14F00D6C0E1EE86A7E
:102830000E22001E09AE22EF14F0086C091EE86A91
:102840000922001E37EC14F009BE32EF14F000AE7E
:10285000000C086C091EE86A0922046C051EE86A6F
:0E2860000522000C00BE29EF14F00188FF0CC9
:02286E00056AF9
:10287000046A100EE76ED89008360936043605361D
:102880000D50045C0E50055805E30D50045E0E50CB
:0A289000055A082AE72EF0D71200BF
:06289A00400EF36E00EE9B
:1028A00000F00F0E01D81200EA6002D0EE6AFCD7E9
:0A28B000F350E9601200EE6AFCD755
:0628BA001EEE00F02EEE00
:1028C00000F0F86A019CC2EC13F003EC00F02DEC70
:0628D0000CF0FBD7120022
:020000040001F9
:01FFF8008088
:01FFF900F413
:01FFFA000501
:01FFFB00FF06
:01FFFC00F80C
:00000001FF
